:0400000060EF00F0BD
:10000800FACF01F0FBCF02F0E9CF03F019EF01F0CE
:10001800D8CF0FF0E8CF10F0E0CF11F0FACF12F000
:10002800FBCF13F0E9CF14F0EACF15F0E1CF16F0CB
:10003800E2CF17F0D9CF18F0DACF19F0F3CF1AF0D2
:10004800F4CF1BF0F6CF1CF0F7CF1DF0F8CF1EF061
:10005800F5CF1FF0F2BAF2A40CD0F294000ED76ECE
:100068000F0ED66E010E3526000E362237223822A4
:1000780000D01FC0F5FF1EC0F8FF1DC0F7FF1CC051
:10008800F6FF1BC0F4FF1AC0F3FF19C0DAFF18C04F
:10009800D9FF17C0E2FF16C0E1FF15C0EAFF14C080
:1000A800E9FF13C0FBFF12C0FAFF11C0E0FF10C048
:1000B800E8FF0FC0D8FF1000B6EF01F02350D8B406
:1000C80005D0205021102210D8A40ED0000E206E8A
:1000D800000E216E000E226E120006D0232AD89040
:1000E80022322132203200D0000E2014256E000E5C
:1000F8002114266EFE0E2214276E25502610271076
:10010800D8B40ED0EBD70CD0232A010E2026000E2F
:100118002122000E2222D89022322132203200D011
:10012800000E2014256E000E2114266EFF0E2214D8
:10013800276E255026102710D8B408D0E5D706D04A
:100148002306D89020362136223600D021BE04D08E
:10015800020E2360F5D700D023B002D0219E00D034
:10016800D8902332235022122450D8B402D0228EA1
:1001780000D020C020F021C021F022C022F01200BF
:1001880012008090000E2F6E000E2E6E000E47D0CB
:100198002FA002D0809002D0808000D0050E2F18AA
:1001A800D8A402D0808200D0070E2F18D8B480922D
:1001B8002FA01BD0060E2F6418D076EC01F020C0BB
:1001C80028F021C029F0A3EC01F02E50030DC10E38
:1001D800F324D96E0C0EF420DA6E28C0DEFF29C095
:1001E800DEFF2AC0DEFF2E2A00D0000E2D6E000E84
:1001F8002C6E000E2D6E000E2C6E2D500AE1A00EF6
:100208002C5CD8B006D001D004D02C4A2D2AF5D7C2
:1002180000D02F2A800E2E18D8A403D0010E2B6EE2
:1002280000D02B50D8B4B4D71200EACF04F0E1CFF5
:1002380005F0E2CF06F0D9CF07F0DACF08F0F3CF18
:1002480009F0F4CF0AF0F6CF0BF0F7CF0CF0F8CFA7
:100258000DF0F5CF0EF0A49A0EC0F5FF0DC0F8FF13
:100268000CC0F7FF0BC0F6FF0AC0F4FF09C0F3FF8C
:1002780008C0DAFF07C0D9FF06C0E2FF05C0E1FFEA
:1002880004C0EAFF03C0E9FF02C0FBFF01C0FAFF98
:100298001100CB68000E0F01516F000E0F014E6F59
:1002A800000E0F014B6F0F01509B0F0150990F016A
:1002B8004D9B0F014D990F014A9B0F014A9994508C
:1002C8003B0B946ECA92CA90CA840F0150850F01E5
:1002D80050870F014D850F014D870F014A850F018A
:1002E8004A871200000E246E000E246E02D004D03D
:1002F800242A630E2464FCD7C28200D0C2B2FED77F
:10030800C450236E226AC3502224206E000E23207C
:10031800216E12001200938E939CBA84BA98000E34
:100328007C6E330E7B6E080EB96EBA8AA688A68ECE
:10033800D08EF28EF28CA38AA398A49A120028C0B9
:1003480020F029C021F0226A8E0E236E000E246E42
:1003580062EC00F020C028F021C029F022C02AF069
:10036800120012000CEEC1F011EE80F0EE6AE550BA
:10037800E150FCE1E250FAE1386A376A366A356AD8
:100388000001E9EF01F0C19EC19CC19AC198C196D4
:100398000F015D870F015D850F015D83C280C284F7
:1003A8001200D594D582D590D596D59AD58CF1944E
:1003B800F28AF28CF28E12004DEC01F08FEC01F013
:1003C800C7EC01F0D5EC01F01200E0EC01F000D030
:0A03D800C5EC00F0FDD760EF00F067
:020000040020DA
:08000000FFFFFFFFFFFFFFFF00
:020000040030CA
:0E00000015087F7CFF0991FF0FC00FE00F4035
:00000001FF
